{
  "abi": [
    {
      "type": "constructor",
      "inputs": [],
      "stateMutability": "nonpayable"
    },
    {
      "type": "function",
      "name": "DEFAULT_ADMIN_ROLE",
      "inputs": [],
      "outputs": [
        {
          "name": "",
          "type": "bytes32",
          "internalType": "bytes32"
        }
      ],
      "stateMutability": "view"
    },
    {
      "type": "function",
      "name": "UPGRADER_ROLE",
      "inputs": [],
      "outputs": [
        {
          "name": "",
          "type": "bytes32",
          "internalType": "bytes32"
        }
      ],
      "stateMutability": "view"
    },
    {
      "type": "function",
      "name": "UPGRADE_INTERFACE_VERSION",
      "inputs": [],
      "outputs": [
        {
          "name": "",
          "type": "string",
          "internalType": "string"
        }
      ],
      "stateMutability": "view"
    },
    {
      "type": "function",
      "name": "finalize",
      "inputs": [
        {
          "name": "goalId",
          "type": "uint256",
          "internalType": "uint256"
        }
      ],
      "outputs": [],
      "stateMutability": "nonpayable"
    },
    {
      "type": "function",
      "name": "getRoleAdmin",
      "inputs": [
        {
          "name": "role",
          "type": "bytes32",
          "internalType": "bytes32"
        }
      ],
      "outputs": [
        {
          "name": "",
          "type": "bytes32",
          "internalType": "bytes32"
        }
      ],
      "stateMutability": "view"
    },
    {
      "type": "function",
      "name": "getTally",
      "inputs": [
        {
          "name": "goalId",
          "type": "uint256",
          "internalType": "uint256"
        }
      ],
      "outputs": [
        {
          "name": "counts",
          "type": "uint256[]",
          "internalType": "uint256[]"
        },
        {
          "name": "total",
          "type": "uint256",
          "internalType": "uint256"
        }
      ],
      "stateMutability": "view"
    },
    {
      "type": "function",
      "name": "grantRole",
      "inputs": [
        {
          "name": "role",
          "type": "bytes32",
          "internalType": "bytes32"
        },
        {
          "name": "account",
          "type": "address",
          "internalType": "address"
        }
      ],
      "outputs": [],
      "stateMutability": "nonpayable"
    },
    {
      "type": "function",
      "name": "hasRole",
      "inputs": [
        {
          "name": "role",
          "type": "bytes32",
          "internalType": "bytes32"
        },
        {
          "name": "account",
          "type": "address",
          "internalType": "address"
        }
      ],
      "outputs": [
        {
          "name": "",
          "type": "bool",
          "internalType": "bool"
        }
      ],
      "stateMutability": "view"
    },
    {
      "type": "function",
      "name": "initialize",
      "inputs": [
        {
          "name": "admin",
          "type": "address",
          "internalType": "address"
        },
        {
          "name": "_quorumNumerator",
          "type": "uint256",
          "internalType": "uint256"
        },
        {
          "name": "_quorumDenominator",
          "type": "uint256",
          "internalType": "uint256"
        },
        {
          "name": "_voteWindow",
          "type": "uint256",
          "internalType": "uint256"
        }
      ],
      "outputs": [],
      "stateMutability": "nonpayable"
    },
    {
      "type": "function",
      "name": "isResolver",
      "inputs": [
        {
          "name": "goalId",
          "type": "uint256",
          "internalType": "uint256"
        },
        {
          "name": "user",
          "type": "address",
          "internalType": "address"
        }
      ],
      "outputs": [
        {
          "name": "",
          "type": "bool",
          "internalType": "bool"
        }
      ],
      "stateMutability": "view"
    },
    {
      "type": "function",
      "name": "pool",
      "inputs": [],
      "outputs": [
        {
          "name": "",
          "type": "address",
          "internalType": "contract IPredictionPool"
        }
      ],
      "stateMutability": "view"
    },
    {
      "type": "function",
      "name": "proxiableUUID",
      "inputs": [],
      "outputs": [
        {
          "name": "",
          "type": "bytes32",
          "internalType": "bytes32"
        }
      ],
      "stateMutability": "view"
    },
    {
      "type": "function",
      "name": "quorumDenominator",
      "inputs": [],
      "outputs": [
        {
          "name": "",
          "type": "uint256",
          "internalType": "uint256"
        }
      ],
      "stateMutability": "view"
    },
    {
      "type": "function",
      "name": "quorumNumerator",
      "inputs": [],
      "outputs": [
        {
          "name": "",
          "type": "uint256",
          "internalType": "uint256"
        }
      ],
      "stateMutability": "view"
    },
    {
      "type": "function",
      "name": "renounceRole",
      "inputs": [
        {
          "name": "role",
          "type": "bytes32",
          "internalType": "bytes32"
        },
        {
          "name": "callerConfirmation",
          "type": "address",
          "internalType": "address"
        }
      ],
      "outputs": [],
      "stateMutability": "nonpayable"
    },
    {
      "type": "function",
      "name": "revokeRole",
      "inputs": [
        {
          "name": "role",
          "type": "bytes32",
          "internalType": "bytes32"
        },
        {
          "name": "account",
          "type": "address",
          "internalType": "address"
        }
      ],
      "outputs": [],
      "stateMutability": "nonpayable"
    },
    {
      "type": "function",
      "name": "setPool",
      "inputs": [
        {
          "name": "_pool",
          "type": "address",
          "internalType": "address"
        }
      ],
      "outputs": [],
      "stateMutability": "nonpayable"
    },
    {
      "type": "function",
      "name": "startVote",
      "inputs": [
        {
          "name": "goalId",
          "type": "uint256",
          "internalType": "uint256"
        }
      ],
      "outputs": [],
      "stateMutability": "nonpayable"
    },
    {
      "type": "function",
      "name": "submitVote",
      "inputs": [
        {
          "name": "goalId",
          "type": "uint256",
          "internalType": "uint256"
        },
        {
          "name": "choice",
          "type": "uint8",
          "internalType": "uint8"
        }
      ],
      "outputs": [],
      "stateMutability": "nonpayable"
    },
    {
      "type": "function",
      "name": "supportsInterface",
      "inputs": [
        {
          "name": "interfaceId",
          "type": "bytes4",
          "internalType": "bytes4"
        }
      ],
      "outputs": [
        {
          "name": "",
          "type": "bool",
          "internalType": "bool"
        }
      ],
      "stateMutability": "view"
    },
    {
      "type": "function",
      "name": "upgradeToAndCall",
      "inputs": [
        {
          "name": "newImplementation",
          "type": "address",
          "internalType": "address"
        },
        {
          "name": "data",
          "type": "bytes",
          "internalType": "bytes"
        }
      ],
      "outputs": [],
      "stateMutability": "payable"
    },
    {
      "type": "function",
      "name": "voteWindow",
      "inputs": [],
      "outputs": [
        {
          "name": "",
          "type": "uint256",
          "internalType": "uint256"
        }
      ],
      "stateMutability": "view"
    },
    {
      "type": "function",
      "name": "votes",
      "inputs": [
        {
          "name": "",
          "type": "uint256",
          "internalType": "uint256"
        },
        {
          "name": "",
          "type": "address",
          "internalType": "address"
        }
      ],
      "outputs": [
        {
          "name": "choice",
          "type": "uint8",
          "internalType": "uint8"
        },
        {
          "name": "voted",
          "type": "bool",
          "internalType": "bool"
        }
      ],
      "stateMutability": "view"
    },
    {
      "type": "event",
      "name": "GoalDisputed",
      "inputs": [
        {
          "name": "goalId",
          "type": "uint256",
          "indexed": true,
          "internalType": "uint256"
        }
      ],
      "anonymous": false
    },
    {
      "type": "event",
      "name": "GoalFinalized",
      "inputs": [
        {
          "name": "goalId",
          "type": "uint256",
          "indexed": true,
          "internalType": "uint256"
        },
        {
          "name": "winningChoice",
          "type": "uint8",
          "indexed": false,
          "internalType": "uint8"
        }
      ],
      "anonymous": false
    },
    {
      "type": "event",
      "name": "Initialized",
      "inputs": [
        {
          "name": "version",
          "type": "uint64",
          "indexed": false,
          "internalType": "uint64"
        }
      ],
      "anonymous": false
    },
    {
      "type": "event",
      "name": "RoleAdminChanged",
      "inputs": [
        {
          "name": "role",
          "type": "bytes32",
          "indexed": true,
          "internalType": "bytes32"
        },
        {
          "name": "previousAdminRole",
          "type": "bytes32",
          "indexed": true,
          "internalType": "bytes32"
        },
        {
          "name": "newAdminRole",
          "type": "bytes32",
          "indexed": true,
          "internalType": "bytes32"
        }
      ],
      "anonymous": false
    },
    {
      "type": "event",
      "name": "RoleGranted",
      "inputs": [
        {
          "name": "role",
          "type": "bytes32",
          "indexed": true,
          "internalType": "bytes32"
        },
        {
          "name": "account",
          "type": "address",
          "indexed": true,
          "internalType": "address"
        },
        {
          "name": "sender",
          "type": "address",
          "indexed": true,
          "internalType": "address"
        }
      ],
      "anonymous": false
    },
    {
      "type": "event",
      "name": "RoleRevoked",
      "inputs": [
        {
          "name": "role",
          "type": "bytes32",
          "indexed": true,
          "internalType": "bytes32"
        },
        {
          "name": "account",
          "type": "address",
          "indexed": true,
          "internalType": "address"
        },
        {
          "name": "sender",
          "type": "address",
          "indexed": true,
          "internalType": "address"
        }
      ],
      "anonymous": false
    },
    {
      "type": "event",
      "name": "Upgraded",
      "inputs": [
        {
          "name": "implementation",
          "type": "address",
          "indexed": true,
          "internalType": "address"
        }
      ],
      "anonymous": false
    },
    {
      "type": "event",
      "name": "VoteSubmitted",
      "inputs": [
        {
          "name": "goalId",
          "type": "uint256",
          "indexed": true,
          "internalType": "uint256"
        },
        {
          "name": "resolver",
          "type": "address",
          "indexed": true,
          "internalType": "address"
        },
        {
          "name": "choice",
          "type": "uint8",
          "indexed": false,
          "internalType": "uint8"
        }
      ],
      "anonymous": false
    },
    {
      "type": "error",
      "name": "AccessControlBadConfirmation",
      "inputs": []
    },
    {
      "type": "error",
      "name": "AccessControlUnauthorizedAccount",
      "inputs": [
        {
          "name": "account",
          "type": "address",
          "internalType": "address"
        },
        {
          "name": "neededRole",
          "type": "bytes32",
          "internalType": "bytes32"
        }
      ]
    },
    {
      "type": "error",
      "name": "AddressEmptyCode",
      "inputs": [
        {
          "name": "target",
          "type": "address",
          "internalType": "address"
        }
      ]
    },
    {
      "type": "error",
      "name": "AlreadyFinalized",
      "inputs": []
    },
    {
      "type": "error",
      "name": "AlreadyVoted",
      "inputs": []
    },
    {
      "type": "error",
      "name": "CannotFinalizeYet",
      "inputs": []
    },
    {
      "type": "error",
      "name": "ERC1967InvalidImplementation",
      "inputs": [
        {
          "name": "implementation",
          "type": "address",
          "internalType": "address"
        }
      ]
    },
    {
      "type": "error",
      "name": "ERC1967NonPayable",
      "inputs": []
    },
    {
      "type": "error",
      "name": "FailedInnerCall",
      "inputs": []
    },
    {
      "type": "error",
      "name": "InvalidInitialization",
      "inputs": []
    },
    {
      "type": "error",
      "name": "NotInitializing",
      "inputs": []
    },
    {
      "type": "error",
      "name": "NotResolver",
      "inputs": []
    },
    {
      "type": "error",
      "name": "OnlyPool",
      "inputs": []
    },
    {
      "type": "error",
      "name": "PoolNotSet",
      "inputs": []
    },
    {
      "type": "error",
      "name": "UUPSUnauthorizedCallContext",
      "inputs": []
    },
    {
      "type": "error",
      "name": "UUPSUnsupportedProxiableUUID",
      "inputs": [
        {
          "name": "slot",
          "type": "bytes32",
          "internalType": "bytes32"
        }
      ]
    },
    {
      "type": "error",
      "name": "VoteWindowExpired",
      "inputs": []
    }
  ],
  "bytecode": {
    "object": "0x60a080604052346100cc57306080527ff0c57e16840df040f15088dc2f81fe391c3923bec73e23a9662efc9c229c6a009081549060ff8260401c166100bd57506001600160401b036002600160401b031982821601610078575b60405161141090816100d1823960805181818161071001526107ee0152f35b6001600160401b031990911681179091556040519081527fc7f505b2f371ae2175ee4913f4499e1f2633a7b5936321eed1cdaeb6115181d290602090a15f8080610059565b63f92ee8a960e01b8152600490fd5b5f80fdfe6080604090808252600480361015610015575f80fd5b5f3560e01c91826301ffc9a714610e605750816305261aea14610da857816316f0115b14610d80578163248a9ca314610d4a5781632f2ff15d14610d2257816336568abe14610cde5781633f22052414610beb5781634437152a14610b6c5781634ec81af114610a285781634f1ef2861461077457816352d1902d146106fd5781636d430747146106df57816391d148541461068f57816397c3d3341461067357816399653fbe1461046a578163a217fddf14610450578163a7713a7014610432578163ad3cb1cc14610394578163c4c39224146102e3578163d23254b414610294578163d547741f1461024c578163eb0772c91461015a575063f72c0d8b1461011d575f80fd5b34610156575f36600319011261015657602090517f189ab7a9244df0848122154315af71fe140f3db0fe014031783b0946b8c9d2e38152f35b5f80fd5b823461015657602090816003193601126101565782355f525f8252805f20908051926060840184811067ffffffffffffffff8211176102395782526002845280840192823685375f8052808252825f205485511561022657845260019560015f52818352835f2054908651600110156102135750858401526001015482518381529451928501839052606085019390925f5b818110610200575050508380955001520390f35b82518652948301949183019187016101ec565b603290634e487b7160e01b5f525260245ffd5b603287634e487b7160e01b5f525260245ffd5b604186634e487b7160e01b5f525260245ffd5b8234610156578060031936011261015657610292913561028d600161026f610eb2565b93835f525f805160206113bb8339815191526020525f200154611124565b611297565b005b9050346101565781600319360112610156576102ae610eb2565b90355f526001602052815f209060018060a01b03165f52602052805f205460ff825191818116835260081c1615156020820152f35b905034610156578160031936011261015657602061033c91610303610eb2565b6002548551633130e48960e21b815283359381019384526001600160a01b03928316602085015294859392909116918391829160400190565b03915afa90811561038a57916020925f9261035b575b50519015158152f35b61037c919250833d8511610383575b6103748183610f06565b810190610f96565b905f610352565b503d61036a565b82513d5f823e3d90fd5b8234610156575f366003190112610156578051918183019083821067ffffffffffffffff83111761041f57508152600582526020640352e302e360dc1b60208401528151928391602083528151918260208501525f5b8381106104095750505f83830185015250601f01601f19168101030190f35b81810183015187820187015286945082016103ea565b604190634e487b7160e01b5f525260245ffd5b8234610156575f366003190112610156576020906003549051908152f35b8234610156575f36600319011261015657602090515f8152f35b823461015657806003193601126101565781359160243560ff811680910361015657835f526020905f8252835f2091600383015460ff811661066357865f5260018252855f20335f52825260ff865f205460081c16610653576002548651633130e48960e21b81528681018981523360208201529091849183916001600160a01b0316908290819060400103915afa908115610649575f9161062c575b501561061c5761052867ffffffffffffffff91826005549160081c16610f89565b421161060c57855190818701908111828210176102395792877f4dad34f5c0bfc89aa43660836c7a6aa46a7a6a5d437c6b9db430ac5d82c69b076002946105ea9897946105e2978b5284815281810160018152845f52600183528b5f20335f52835260ff8c5f2092511661ff0083549251151560081b169161ffff191617179055835f52848152895f206105bc8154610fae565b905560018501996105cd8b54610fae565b809b55519384523393a3015460035490610f44565b905490610f6b565b908115610603575b10156105fa57005b61029290610fbc565b600191506105f2565b855163c45b8fa160e01b81528590fd5b8551635d154fe160e11b81528590fd5b6106439150833d8511610383576103748183610f06565b88610507565b87513d5f823e3d90fd5b8551637c9a1cf960e01b81528590fd5b855163475a253560e01b81528590fd5b8234610156575f36600319011261015657602091549051908152f35b82346101565780600319360112610156576020916106ab610eb2565b90355f525f805160206113bb8339815191528352815f209060018060a01b03165f52825260ff815f20541690519015158152f35b8234610156575f366003190112610156576020906005549051908152f35b8234610156575f366003190112610156577f00000000000000000000000000000000000000000000000000000000000000006001600160a01b0316300361076757602090517f360894a13ba1a3210667c828492db98dca3e2076cc3735a920a3ca505d382bbc8152f35b5163703e46dd60e11b8152fd5b90508160031936011261015657610789610ec8565b602492833567ffffffffffffffff8111610156573660238201121561015657808401356107b581610f28565b936107c284519586610f06565b818552602091828601933689838301011161015657815f928a8693018737870101526001600160a01b037f000000000000000000000000000000000000000000000000000000000000000081163081149081156109fa575b506109ea577f189ab7a9244df0848122154315af71fe140f3db0fe014031783b0946b8c9d2e3805f525f805160206113bb8339815191528452855f20335f52845260ff865f205416156109cd575081169484516352d1902d60e01b8152838189818a5afa5f918161099e575b506108a15750505050505191634c9c8ce360e01b8352820152fd5b9087878794938b7f360894a13ba1a3210667c828492db98dca3e2076cc3735a920a3ca505d382bbc918281036109895750853b15610975575080546001600160a01b031916821790558451907fbc7cd75a20ee27fd9adebab32041f755214dbc6bffa90cc0225b39da2e5c2d3b5f80a282511561095b5750505f6102929581925190845af4913d15610951573d61094361093a82610f28565b92519283610f06565b81525f81943d92013e611357565b5060609250611357565b945094505050503461096957005b63b398979f60e01b8152fd5b8651634c9c8ce360e01b8152808501849052fd5b8751632a87526960e21b815280860191909152fd5b9091508481813d83116109c6575b6109b68183610f06565b810103126101565751905f610886565b503d6109ac565b855163e2517d3f60e01b815233818a0152808a0191909152604490fd5b845163703e46dd60e11b81528790fd5b9050817f360894a13ba1a3210667c828492db98dca3e2076cc3735a920a3ca505d382bbc541614155f61081a565b90503461015657608036600319011261015657610a43610ec8565b7ff0c57e16840df040f15088dc2f81fe391c3923bec73e23a9662efc9c229c6a009182549160ff83861c16159267ffffffffffffffff811680159081610b64575b6001149081610b5a575b159081610b51575b50610b415767ffffffffffffffff1981166001178555610acd919084610b22575b50610ac0611316565b610ac8611316565b611170565b506024356003556044359055606435600555610ae557005b805468ff00000000000000001916905551600181527fc7f505b2f371ae2175ee4913f4499e1f2633a7b5936321eed1cdaeb6115181d290602090a1005b68ffffffffffffffffff1916680100000000000000011785555f610ab7565b855163f92ee8a960e01b81528390fd5b9050155f610a96565b303b159150610a8e565b859150610a84565b90503461015657602036600319011261015657610b87610ec8565b915f80525f805160206113bb833981519152602052805f20335f5260205260ff815f20541615610bce57600280546001600160a01b0319166001600160a01b038516179055005b60449250519063e2517d3f60e01b825233908201525f6024820152fd5b9050346101565760209081600319360112610156576002546001600160a01b03929082359084168015610cce573303610cbe578082915f525f82526024865f209560038701805468ffffffffffffffff004260081b169068ffffffffffffffff00191617905560025416948751958693849263175bdcbb60e01b84528301525afa938415610cb557505f93610c84575b60028301849055005b9080929350813d8311610cae575b610c9c8183610f06565b8101031261015657519060025f610c7b565b503d610c92565b513d5f823e3d90fd5b8451634b60273560e01b81528390fd5b8551633c67586360e01b81528490fd5b8234610156578060031936011261015657610cf7610eb2565b90336001600160a01b03831603610d1357506102929135611297565b5163334bd91960e11b81529050fd5b82346101565780600319360112610156576102929135610d45600161026f610eb2565b61120d565b823461015657602036600319011261015657602091355f525f805160206113bb83398151915282526001815f2001549051908152f35b8234610156575f3660031901126101565760025490516001600160a01b039091168152602090f35b823461015657602036600319011261015657813590815f525f602052805f2060038101549060ff8216610e505780610df5610ded6002610e1994015460035490610f44565b875490610f6b565b908115610e47575b60010154109167ffffffffffffffff6005549160081c16610f89565b421181610e3e575b50610e2f5761029282610fbc565b5163ddf14e6b60e01b81529050fd5b90501584610e21565b60019150610dfd565b825163475a253560e01b81528590fd5b903461015657602036600319011261015657359063ffffffff60e01b821680920361015657602091637965db0b60e01b8114908115610ea1575b5015158152f35b6301ffc9a760e01b14905083610e9a565b602435906001600160a01b038216820361015657565b600435906001600160a01b038216820361015657565b67ffffffffffffffff8111610ef257604052565b634e487b7160e01b5f52604160045260245ffd5b90601f8019910116810190811067ffffffffffffffff821117610ef257604052565b67ffffffffffffffff8111610ef257601f01601f191660200190565b81810292918115918404141715610f5757565b634e487b7160e01b5f52601160045260245ffd5b8115610f75570490565b634e487b7160e01b5f52601260045260245ffd5b91908201809211610f5757565b90816020910312610156575180151581036101565790565b5f198114610f575760010190565b5f815f525f6020526040805f2060038101600160ff198254161790555f8052602052805f205460015f52815f20548082145f1461108b5750506002546001600160a01b031690813b15610156575f8092602483518095819363314b683560e01b83528960048401525af1908115610cb5575061105a575b50807f057bf3e6ad5c9a9448d9a6044425a116705a671464f10d7f78ee5a59da7f1c5f91a2565b6110649150610ede565b5f7f057bf3e6ad5c9a9448d9a6044425a116705a671464f10d7f78ee5a59da7f1c5f611033565b919250101561111d576001905b6002546001600160a01b031691823b15610156575f60ff6044829385519485938492632b5421b960e01b84528a600485015216978860248401525af1801561038a57917f3642ea12141c4b77a54e6a0811f88bf0c26ec479a78e36c0970200dcb1e692ab939160209361110e575b5051908152a2565b61111790610ede565b5f611106565b5f90611098565b805f525f805160206113bb83398151915260205260405f20335f5260205260ff60405f205416156111525750565b6044906040519063e2517d3f60e01b82523360048301526024820152fd5b6001600160a01b03165f8181527fb7db2dd08fcb62d0c9e08c51941cae53c267786a0b75803fb7960902fc8ef97d60205260409020545f805160206113bb8339815191529060ff16611207575f805260205260405f20815f5260205260405f20600160ff1982541617905533905f7f2f8788117e7eff1d82e926ec794901d17c78024a50270940304540a733656f0d8180a4600190565b50505f90565b90815f525f805160206113bb8339815191528060205260405f209160018060a01b031691825f5260205260ff60405f205416155f1461129057825f5260205260405f20815f5260205260405f20600160ff1982541617905533917f2f8788117e7eff1d82e926ec794901d17c78024a50270940304540a733656f0d5f80a4600190565b5050505f90565b90815f525f805160206113bb8339815191528060205260405f209160018060a01b031691825f5260205260ff60405f2054165f1461129057825f5260205260405f20815f5260205260405f2060ff19815416905533917ff6391f5c32d9c69d2a47ea670b442974b53935d1edc7fd64eb21e047a839171b5f80a4600190565b60ff7ff0c57e16840df040f15088dc2f81fe391c3923bec73e23a9662efc9c229c6a005460401c161561134557565b604051631afcd79f60e31b8152600490fd5b9061137e575080511561136c57805190602001fd5b604051630a12f52160e11b8152600490fd5b815115806113b1575b61138f575090565b604051639996b31560e01b81526001600160a01b039091166004820152602490fd5b50803b1561138756fe02dd7bc7dec4dceedda775e58dd541e08a116c6c53815c0bd028192f7b626800a26469706673582212200079a484888b194d6b8783e73a9e432f62b665a1d67c2e6d1724552d638d94e064736f6c63430008180033",
    "linkReferences": {}
  },
  "methodIdentifiers": {
    "DEFAULT_ADMIN_ROLE()": "a217fddf",
    "UPGRADER_ROLE()": "f72c0d8b",
    "UPGRADE_INTERFACE_VERSION()": "ad3cb1cc",
    "finalize(uint256)": "05261aea",
    "getRoleAdmin(bytes32)": "248a9ca3",
    "getTally(uint256)": "eb0772c9",
    "grantRole(bytes32,address)": "2f2ff15d",
    "hasRole(bytes32,address)": "91d14854",
    "initialize(address,uint256,uint256,uint256)": "4ec81af1",
    "isResolver(uint256,address)": "c4c39224",
    "pool()": "16f0115b",
    "proxiableUUID()": "52d1902d",
    "quorumDenominator()": "97c3d334",
    "quorumNumerator()": "a7713a70",
    "renounceRole(bytes32,address)": "36568abe",
    "revokeRole(bytes32,address)": "d547741f",
    "setPool(address)": "4437152a",
    "startVote(uint256)": "3f220524",
    "submitVote(uint256,uint8)": "99653fbe",
    "supportsInterface(bytes4)": "01ffc9a7",
    "upgradeToAndCall(address,bytes)": "4f1ef286",
    "voteWindow()": "6d430747",
    "votes(uint256,address)": "d23254b4"
  },
  "id": 59
}