{"abi":[{"type":"constructor","inputs":[],"stateMutability":"nonpayable"},{"type":"function","name":"DEFAULT_ADMIN_ROLE","inputs":[],"outputs":[{"name":"","type":"bytes32","internalType":"bytes32"}],"stateMutability":"view"},{"type":"function","name":"PAUSER_ROLE","inputs":[],"outputs":[{"name":"","type":"bytes32","internalType":"bytes32"}],"stateMutability":"view"},{"type":"function","name":"UPGRADER_ROLE","inputs":[],"outputs":[{"name":"","type":"bytes32","internalType":"bytes32"}],"stateMutability":"view"},{"type":"function","name":"UPGRADE_INTERFACE_VERSION","inputs":[],"outputs":[{"name":"","type":"string","internalType":"string"}],"stateMutability":"view"},{"type":"function","name":"addMember","inputs":[{"name":"circleId","type":"uint256","internalType":"uint256"},{"name":"member","type":"address","internalType":"address"}],"outputs":[],"stateMutability":"nonpayable"},{"type":"function","name":"circles","inputs":[{"name":"","type":"uint256","internalType":"uint256"}],"outputs":[{"name":"owner","type":"address","internalType":"address"},{"name":"isPrivate","type":"bool","internalType":"bool"},{"name":"createdAt","type":"uint64","internalType":"uint64"},{"name":"metadataURI","type":"string","internalType":"string"}],"stateMutability":"view"},{"type":"function","name":"createCircle","inputs":[{"name":"isPrivate","type":"bool","internalType":"bool"},{"name":"metadataURI","type":"string","internalType":"string"}],"outputs":[{"name":"circleId","type":"uint256","internalType":"uint256"}],"stateMutability":"nonpayable"},{"type":"function","name":"getCircle","inputs":[{"name":"circleId","type":"uint256","internalType":"uint256"}],"outputs":[{"name":"","type":"tuple","internalType":"struct ICircleFactory.Circle","components":[{"name":"owner","type":"address","internalType":"address"},{"name":"isPrivate","type":"bool","internalType":"bool"},{"name":"createdAt","type":"uint64","internalType":"uint64"},{"name":"metadataURI","type":"string","internalType":"string"}]}],"stateMutability":"view"},{"type":"function","name":"getMembers","inputs":[{"name":"circleId","type":"uint256","internalType":"uint256"},{"name":"offset","type":"uint256","internalType":"uint256"},{"name":"limit","type":"uint256","internalType":"uint256"}],"outputs":[{"name":"members","type":"address[]","internalType":"address[]"}],"stateMutability":"view"},{"type":"function","name":"getRoleAdmin","inputs":[{"name":"role","type":"bytes32","internalType":"bytes32"}],"outputs":[{"name":"","type":"bytes32","internalType":"bytes32"}],"stateMutability":"view"},{"type":"function","name":"grantRole","inputs":[{"name":"role","type":"bytes32","internalType":"bytes32"},{"name":"account","type":"address","internalType":"address"}],"outputs":[],"stateMutability":"nonpayable"},{"type":"function","name":"hasRole","inputs":[{"name":"role","type":"bytes32","internalType":"bytes32"},{"name":"account","type":"address","internalType":"address"}],"outputs":[{"name":"","type":"bool","internalType":"bool"}],"stateMutability":"view"},{"type":"function","name":"initialize","inputs":[{"name":"admin","type":"address","internalType":"address"}],"outputs":[],"stateMutability":"nonpayable"},{"type":"function","name":"isCircleMember","inputs":[{"name":"circleId","type":"uint256","internalType":"uint256"},{"name":"user","type":"address","internalType":"address"}],"outputs":[{"name":"","type":"bool","internalType":"bool"}],"stateMutability":"view"},{"type":"function","name":"isMember","inputs":[{"name":"","type":"uint256","internalType":"uint256"},{"name":"","type":"address","internalType":"address"}],"outputs":[{"name":"","type":"bool","internalType":"bool"}],"stateMutability":"view"},{"type":"function","name":"joinCircle","inputs":[{"name":"circleId","type":"uint256","internalType":"uint256"}],"outputs":[],"stateMutability":"nonpayable"},{"type":"function","name":"joinCirclePrivate","inputs":[{"name":"circleId","type":"uint256","internalType":"uint256"},{"name":"inviteProof","type":"bytes","internalType":"bytes"}],"outputs":[],"stateMutability":"nonpayable"},{"type":"function","name":"leaveCircle","inputs":[{"name":"circleId","type":"uint256","internalType":"uint256"}],"outputs":[],"stateMutability":"nonpayable"},{"type":"function","name":"nextCircleId","inputs":[],"outputs":[{"name":"","type":"uint256","internalType":"uint256"}],"stateMutability":"view"},{"type":"function","name":"proxiableUUID","inputs":[],"outputs":[{"name":"","type":"bytes32","internalType":"bytes32"}],"stateMutability":"view"},{"type":"function","name":"removeMember","inputs":[{"name":"circleId","type":"uint256","internalType":"uint256"},{"name":"member","type":"address","internalType":"address"}],"outputs":[],"stateMutability":"nonpayable"},{"type":"function","name":"renounceRole","inputs":[{"name":"role","type":"bytes32","internalType":"bytes32"},{"name":"callerConfirmation","type":"address","internalType":"address"}],"outputs":[],"stateMutability":"nonpayable"},{"type":"function","name":"revokeRole","inputs":[{"name":"role","type":"bytes32","internalType":"bytes32"},{"name":"account","type":"address","internalType":"address"}],"outputs":[],"stateMutability":"nonpayable"},{"type":"function","name":"supportsInterface","inputs":[{"name":"interfaceId","type":"bytes4","internalType":"bytes4"}],"outputs":[{"name":"","type":"bool","internalType":"bool"}],"stateMutability":"view"},{"type":"function","name":"upgradeToAndCall","inputs":[{"name":"newImplementation","type":"address","internalType":"address"},{"name":"data","type":"bytes","internalType":"bytes"}],"outputs":[],"stateMutability":"payable"},{"type":"event","name":"CircleCreated","inputs":[{"name":"id","type":"uint256","indexed":true,"internalType":"uint256"},{"name":"owner","type":"address","indexed":true,"internalType":"address"},{"name":"isPrivate","type":"bool","indexed":false,"internalType":"bool"},{"name":"metadataURI","type":"string","indexed":false,"internalType":"string"}],"anonymous":false},{"type":"event","name":"CircleJoined","inputs":[{"name":"id","type":"uint256","indexed":true,"internalType":"uint256"},{"name":"member","type":"address","indexed":true,"internalType":"address"}],"anonymous":false},{"type":"event","name":"CircleLeft","inputs":[{"name":"id","type":"uint256","indexed":true,"internalType":"uint256"},{"name":"member","type":"address","indexed":true,"internalType":"address"}],"anonymous":false},{"type":"event","name":"Initialized","inputs":[{"name":"version","type":"uint64","indexed":false,"internalType":"uint64"}],"anonymous":false},{"type":"event","name":"MemberAdded","inputs":[{"name":"id","type":"uint256","indexed":true,"internalType":"uint256"},{"name":"member","type":"address","indexed":true,"internalType":"address"}],"anonymous":false},{"type":"event","name":"MemberRemoved","inputs":[{"name":"id","type":"uint256","indexed":true,"internalType":"uint256"},{"name":"member","type":"address","indexed":true,"internalType":"address"}],"anonymous":false},{"type":"event","name":"RoleAdminChanged","inputs":[{"name":"role","type":"bytes32","indexed":true,"internalType":"bytes32"},{"name":"previousAdminRole","type":"bytes32","indexed":true,"internalType":"bytes32"},{"name":"newAdminRole","type":"bytes32","indexed":true,"internalType":"bytes32"}],"anonymous":false},{"type":"event","name":"RoleGranted","inputs":[{"name":"role","type":"bytes32","indexed":true,"internalType":"bytes32"},{"name":"account","type":"address","indexed":true,"internalType":"address"},{"name":"sender","type":"address","indexed":true,"internalType":"address"}],"anonymous":false},{"type":"event","name":"RoleRevoked","inputs":[{"name":"role","type":"bytes32","indexed":true,"internalType":"bytes32"},{"name":"account","type":"address","indexed":true,"internalType":"address"},{"name":"sender","type":"address","indexed":true,"internalType":"address"}],"anonymous":false},{"type":"event","name":"Upgraded","inputs":[{"name":"implementation","type":"address","indexed":true,"internalType":"address"}],"anonymous":false},{"type":"error","name":"AccessControlBadConfirmation","inputs":[]},{"type":"error","name":"AccessControlUnauthorizedAccount","inputs":[{"name":"account","type":"address","internalType":"address"},{"name":"neededRole","type":"bytes32","internalType":"bytes32"}]},{"type":"error","name":"AddressEmptyCode","inputs":[{"name":"target","type":"address","internalType":"address"}]},{"type":"error","name":"AlreadyMember","inputs":[]},{"type":"error","name":"CircleIsPrivate","inputs":[]},{"type":"error","name":"CircleNotFound","inputs":[]},{"type":"error","name":"ECDSAInvalidSignature","inputs":[]},{"type":"error","name":"ECDSAInvalidSignatureLength","inputs":[{"name":"length","type":"uint256","internalType":"uint256"}]},{"type":"error","name":"ECDSAInvalidSignatureS","inputs":[{"name":"s","type":"bytes32","internalType":"bytes32"}]},{"type":"error","name":"ERC1967InvalidImplementation","inputs":[{"name":"implementation","type":"address","internalType":"address"}]},{"type":"error","name":"ERC1967NonPayable","inputs":[]},{"type":"error","name":"FailedInnerCall","inputs":[]},{"type":"error","name":"InvalidInitialization","inputs":[]},{"type":"error","name":"InvalidProof","inputs":[]},{"type":"error","name":"NotCircleOwner","inputs":[]},{"type":"error","name":"NotInitializing","inputs":[]},{"type":"error","name":"NotMember","inputs":[]},{"type":"error","name":"OwnerCannotLeave","inputs":[]},{"type":"error","name":"ProofExpired","inputs":[]},{"type":"error","name":"UUPSUnauthorizedCallContext","inputs":[]},{"type":"error","name":"UUPSUnsupportedProxiableUUID","inputs":[{"name":"slot","type":"bytes32","internalType":"bytes32"}]}],"bytecode":{"object":"0x60a080604052346100cc57306080527ff0c57e16840df040f15088dc2f81fe391c3923bec73e23a9662efc9c229c6a009081549060ff8260401c166100bd57506001600160401b036002600160401b031982821601610078575b604051611a2190816100d18239608051818181610d940152610e380152f35b6001600160401b031990911681179091556040519081527fc7f505b2f371ae2175ee4913f4499e1f2633a7b5936321eed1cdaeb6115181d290602090a15f8080610059565b63f92ee8a960e01b8152600490fd5b5f80fdfe6080604090808252600480361015610015575f80fd5b5f3560e01c91826301ffc9a71461115857508163248a9ca3146111225781632f2ff15d146110fa57816336568abe146110b6578163471cbff81461109a5781634f1ef28614610df857816352d1902d14610d8157816364ccecde14610cba5781636be7658b14610bf657816374d0a67614610b505781637d9e10f51461017057816386d6cfb314610ae557816391857ae11461084a57816391d14854146107fa5781639a366c7b14610788578163a217fddf1461076e578163ad3cb1cc1461072a578163b15cbfa914610577578163bc5e0f3014610503578163c4d66de8146102ea578163d547741f146102a2578163d844fc52146101ee578163e63ab1e9146101b4578163f2f3820b14610170575063f72c0d8b14610133575f80fd5b3461016c575f36600319011261016c57602090517f189ab7a9244df0848122154315af71fe140f3db0fe014031783b0946b8c9d2e38152f35b5f80fd5b823461016c578060031936011261016c5760209161018c6111aa565b90355f5260028352815f209060018060a01b03165f52825260ff815f20541690519015158152f35b823461016c575f36600319011261016c57602090517f65d7a28e3265b37a6474929f336521b332c1681b933f6cb9f3376673440d862a8152f35b823461016c5760208060031936011261016c5782359261020d8461173b565b50835f5260028252825f20335f52825260ff835f20541615610294575f84815260018352839020546001600160a01b031633146102865750825f5260028152815f2090335f52525f2060ff19815416905533907f05e125351f391ea4e7e90c59f0e484269eab1a65d0c84ef66cdafde019ec72215f80a3005b8251634ffd41c760e11b8152fd5b825163148fe22160e11b8152fd5b823461016c578060031936011261016c576102e891356102e360016102c56111aa565b93835f525f805160206119cc8339815191526020525f200154611549565b6116bc565b005b90503461016c57602036600319011261016c576103056111c0565b7ff0c57e16840df040f15088dc2f81fe391c3923bec73e23a9662efc9c229c6a009182549360ff85821c1615926001600160401b0395868116801590816104fb575b60011490816104f1575b1590816104e8575b506104d95767ffffffffffffffff19811660011786556103909190856104ba575b5061038361189a565b61038b61189a565b611595565b5065436972636c6f60d01b602082516103a881611205565b600681520152603160f81b602082516103c081611205565b60018152015280519060208201927f8b73c3c69bb8fe3d512ecc4cf759cc79239f7b179b0ffacaa9a75d522b39400f84527f693efc39d14aad291967c5c7d30b396883c408eadca8bfdaff54fd4c01e05cc0828401527fc89efdaa54c0f20c7adf612882df0950f5a951637e0307cdcb4c672f298b8bc660608401524660808401523060a084015260a0835260c0830196838810908811176104a757508590525190205f5561046b57005b805468ff000000000000000019169055600181527fc7f505b2f371ae2175ee4913f4499e1f2633a7b5936321eed1cdaeb6115181d290602090a1005b604190634e487b7160e01b5f525260245ffd5b68ffffffffffffffffff1916680100000000000000011786555f61037a565b50505163f92ee8a960e01b8152fd5b9050155f610359565b303b159150610351565b869150610347565b823461016c57602036600319011261016c576001600160401b0391355f526001602052610573815f209161053b600184549401611353565b90805194859460018060a01b038116865260ff8160a01c161515602087015260a81c16908401526080606084015260808301906112b0565b0390f35b90503461016c578160031936011261016c578035916001600160401b0360243581811161016c576105ab90369085016112ee565b6105b78693929361173b565b50855f526002602052835f20335f5260205260ff845f20541661071a578201838382031261016c57823582811161016c576020916105f6918501611292565b9201359081421161070a5783519160208301907f96311eb8c7af09b3c0bbc82237f7eb68968233a744889303d62e35d5a1d7565f8252878685015233606085015260808401526080835260a0830191838310908311176106f757918161068f93610698959387528251902060e25f549360c081019461190160f01b865260c2820152015260428152610687816111d6565b5190206117dd565b90929192611817565b5f8481526001602052829020546001600160a01b039081169116036106ea57826106c2338261176e565b33907fa7858a1f19449eeaf5fbe2692047577d00116ecb460791549c018c79e3ce483b5f80a3005b516309bde33960e01b8152fd5b604186634e487b7160e01b5f525260245ffd5b5050505163b67a771360e01b8152fd5b505050516340803a5f60e11b8152fd5b823461016c575f36600319011261016c5780516105739161074a82611205565b60058252640352e302e360dc1b6020830152519182916020835260208301906112b0565b823461016c575f36600319011261016c57602090515f8152f35b90503461016c57606036600319011261016c576107ad90604435906024359035611456565b908051918291602090602080850191818652845180935285019301915f5b8281106107da57505050500390f35b83516001600160a01b0316855286955093810193928101926001016107cb565b823461016c578060031936011261016c576020916108166111aa565b90355f525f805160206119cc8339815191528352815f209060018060a01b03165f52825260ff815f20541690519015158152f35b823461016c578060031936011261016c5781359081151580920361016c576001600160401b0360243581811161016c5761088790369086016112ee565b85549490925f199290838714610ad25786906001809981840181558189516108ae816111d6565b3381528a8a60209e8f6108d1818601948d86528601938a4216855236908d61125c565b99606086019a8b525f52528c5f209260018060a01b0390511683549260ff60a01b9051151560a01b16916001600160401b0360a81b905160a81b169262ffffff60e81b1617171781550193519081519384116104a757509183918a96959361093a8a965461131b565b601f8111610a76575b508c90601f84116001146109d75783927fd810abf553b6ddbeaf5e5c2edf304a7d038d1fc46d83cc3c52218594d0b7e11c999a9284925f956109cc575b50501b9260031b1c19161790555b610998338661176e565b86519283528689840152818784015260608301375f606085830101526060813395601f80199101168101030190a351908152f35b015193508f80610980565b988d91601f9493941984169a865f52835f20935f905b8d8210610a46575050847fd810abf553b6ddbeaf5e5c2edf304a7d038d1fc46d83cc3c52218594d0b7e11c9b9c10610a2e575b50505050811b01905561098e565b01519060f88460031b161c191690558c808080610a20565b92979a9c93968392958392979a9d50819b508987015181550197019401928c9895929b9996938f9b9895926109ed565b919395509193959650845f528b5f20601f850160051c8101918d8610610ac8575b918c9897959391601f8c9896940160051c01905b818110610ab85750610943565b5f81558d99508b97508301610aab565b9091508190610a97565b601188634e487b7160e01b5f525260245ffd5b90503461016c57602036600319011261016c5780359160ff610b068461173b565b5460a01c16610b4357825f526002602052805f20335f5260205260ff815f205416610b3657826106c2338261176e565b516340803a5f60e11b8152fd5b5163393e6b3760e11b8152fd5b90503461016c578160031936011261016c57803590610b6d6111aa565b90610b778361173b565b505f8381526001602052849020546001600160a01b03949085163303610be957835f526002602052805f2094831694855f5260205260ff815f205416610b36575050610bc3908261176e565b7ff328ac0f8bcae00933fe87ba0aa2d0d505c1df94bc9c1aa05b8441c28b74032c5f80a3005b516301e7165960e11b8152fd5b823461016c578060031936011261016c57813590610c126111aa565b92610c1c8361173b565b505f8381526001602052829020546001600160a01b039081163303610cab57835f526002602052825f20941693845f5260205260ff825f20541615610c9d5750815f526002602052805f20835f526020525f2060ff1981541690557f1c4c9d2e56d0635d11bc47c997c6909a0d7061f55cbb8f4b27386db37553191c5f80a3005b905163148fe22160e11b8152fd5b5090516301e7165960e11b8152fd5b90503461016c576020908160031936011261016c57356060808451610cde816111d6565b5f81525f858201525f868201520152610cf68161173b565b505f5260018152610573825f2091835192610d10846111d6565b805460018060a01b0395868216865283860160ff8360a01c1615158152610d4c60016001600160401b039586858b019660a81c16865201611353565b94606088019586528251988998828a5251169088015251151590860152511660608401525160808084015260a08301906112b0565b823461016c575f36600319011261016c577f00000000000000000000000000000000000000000000000000000000000000006001600160a01b03163003610deb57602090517f360894a13ba1a3210667c828492db98dca3e2076cc3735a920a3ca505d382bbc8152f35b5163703e46dd60e11b8152fd5b90508160031936011261016c57610e0d6111c0565b916024356001600160401b03811161016c57610e2c9036908401611292565b6001600160a01b0391907f0000000000000000000000000000000000000000000000000000000000000000831630811490811561106c575b5061105c577f189ab7a9244df0848122154315af71fe140f3db0fe014031783b0946b8c9d2e392835f526020935f805160206119cc8339815191528552835f20335f52855260ff845f2054161561103e57508516928251956352d1902d60e01b875281878781885afa5f978161100f575b50610ef1578351634c9c8ce360e01b8152808701869052602490fd5b919490937f360894a13ba1a3210667c828492db98dca3e2076cc3735a920a3ca505d382bbc877fc9f76b5ec45e5cdef99837d7b6d2467235c1df8933c8ca56df5c35afa2c7d4448101610ff95750833b15610fe25780546001600160a01b031916821790558351907fbc7cd75a20ee27fd9adebab32041f755214dbc6bffa90cc0225b39da2e5c2d3b5f80a2855115610fc95750505f8085856102e897519101845af4913d15610fbf573d610fb1610fa882611241565b92519283611220565b81525f81943d92013e611968565b5060609250611968565b93509350505034610fd657005b63b398979f60e01b8152fd5b8451634c9c8ce360e01b8152808401839052602490fd5b83602491875191632a87526960e21b8352820152fd5b9097508281813d8311611037575b6110278183611220565b8101031261016c5751965f610ed5565b503d61101d565b835163e2517d3f60e01b815233818801526024810191909152604490fd5b815163703e46dd60e11b81528490fd5b9050837f360894a13ba1a3210667c828492db98dca3e2076cc3735a920a3ca505d382bbc541614155f610e64565b823461016c575f36600319011261016c57602091549051908152f35b823461016c578060031936011261016c576110cf6111aa565b90336001600160a01b038316036110eb57506102e891356116bc565b5163334bd91960e11b81529050fd5b823461016c578060031936011261016c576102e8913561111d60016102c56111aa565b611632565b823461016c57602036600319011261016c57602091355f525f805160206119cc83398151915282526001815f2001549051908152f35b903461016c57602036600319011261016c57359063ffffffff60e01b821680920361016c57602091637965db0b60e01b8114908115611199575b5015158152f35b6301ffc9a760e01b14905083611192565b602435906001600160a01b038216820361016c57565b600435906001600160a01b038216820361016c57565b608081019081106001600160401b038211176111f157604052565b634e487b7160e01b5f52604160045260245ffd5b604081019081106001600160401b038211176111f157604052565b90601f801991011681019081106001600160401b038211176111f157604052565b6001600160401b0381116111f157601f01601f191660200190565b92919261126882611241565b916112766040519384611220565b82948184528183011161016c578281602093845f960137010152565b9080601f8301121561016c578160206112ad9335910161125c565b90565b91908251928382525f5b8481106112da575050825f602080949584010152601f8019910116010190565b6020818301810151848301820152016112ba565b9181601f8401121561016c578235916001600160401b03831161016c576020838186019501011161016c57565b90600182811c92168015611349575b602083101461133557565b634e487b7160e01b5f52602260045260245ffd5b91607f169161132a565b9060405191825f82546113658161131b565b908184526020946001916001811690815f146113d35750600114611395575b50505061139392500383611220565b565b5f90815285812095935091905b8183106113bb57505061139393508201015f8080611384565b855488840185015294850194879450918301916113a2565b9250505061139394925060ff191682840152151560051b8201015f8080611384565b6001600160401b0381116111f15760051b60200190565b9190820180921161141957565b634e487b7160e01b5f52601160045260245ffd5b8054821015611442575f5260205f2001905f90565b634e487b7160e01b5f52603260045260245ffd5b929190925f526003906020600360205260405f20928354928387101561151c57611480908761140c565b92808411611514575b508583039283116114195761149d836113f5565b936114ab6040519586611220565b838552601f196114ba856113f5565b0136602087013784965f5b8581106114d55750505050505050565b6114e86114e2828461140c565b8461142d565b9054885191861b1c6001600160a01b0316919081101561144257600191868260051b8a010152016114c5565b92505f611489565b50505050509050604051602081018181106001600160401b038211176111f1576040525f81525f36813790565b805f525f805160206119cc83398151915260205260405f20335f5260205260ff60405f205416156115775750565b6044906040519063e2517d3f60e01b82523360048301526024820152fd5b6001600160a01b03165f8181527fb7db2dd08fcb62d0c9e08c51941cae53c267786a0b75803fb7960902fc8ef97d60205260409020545f805160206119cc8339815191529060ff1661162c575f805260205260405f20815f5260205260405f20600160ff1982541617905533905f7f2f8788117e7eff1d82e926ec794901d17c78024a50270940304540a733656f0d8180a4600190565b50505f90565b90815f525f805160206119cc8339815191528060205260405f209160018060a01b031691825f5260205260ff60405f205416155f146116b557825f5260205260405f20815f5260205260405f20600160ff1982541617905533917f2f8788117e7eff1d82e926ec794901d17c78024a50270940304540a733656f0d5f80a4600190565b5050505f90565b90815f525f805160206119cc8339815191528060205260405f209160018060a01b031691825f5260205260ff60405f2054165f146116b557825f5260205260405f20815f5260205260405f2060ff19815416905533917ff6391f5c32d9c69d2a47ea670b442974b53935d1edc7fd64eb21e047a839171b5f80a4600190565b5f52600160205260405f20906001600160401b03825460a81c161561175c57565b604051630a4b669560e31b8152600490fd5b5f8181526002602090815260408083206001600160a01b03958616808552908352818420805460ff19166001179055938352600390915290208054680100000000000000008110156111f1576117c99160018201815561142d565b909283549160031b92831b921b1916179055565b815191906041830361180d576118069250602082015190606060408401519301515f1a906118db565b9192909190565b50505f9160029190565b60048110156118865780611829575050565b600181036118435760405163f645eedf60e01b8152600490fd5b600281036118645760405163fce698f760e01b815260048101839052602490fd5b60031461186e5750565b602490604051906335e2f38360e21b82526004820152fd5b634e487b7160e01b5f52602160045260245ffd5b60ff7ff0c57e16840df040f15088dc2f81fe391c3923bec73e23a9662efc9c229c6a005460401c16156118c957565b604051631afcd79f60e31b8152600490fd5b91907f7fffffffffffffffffffffffffffffff5d576e7357a4501ddfe92f46681b20a0841161195d579160209360809260ff5f9560405194855216868401526040830152606082015282805260015afa15611952575f516001600160a01b0381161561194857905f905f90565b505f906001905f90565b6040513d5f823e3d90fd5b5050505f9160039190565b9061198f575080511561197d57805190602001fd5b604051630a12f52160e11b8152600490fd5b815115806119c2575b6119a0575090565b604051639996b31560e01b81526001600160a01b039091166004820152602490fd5b50803b1561199856fe02dd7bc7dec4dceedda775e58dd541e08a116c6c53815c0bd028192f7b626800a2646970667358221220dc202cf19d02391425449c087589666dd014315a5403d8275cde6fe6def1082c64736f6c63430008180033","linkReferences":{}},"methodIdentifiers":{"DEFAULT_ADMIN_ROLE()":"a217fddf","PAUSER_ROLE()":"e63ab1e9","UPGRADER_ROLE()":"f72c0d8b","UPGRADE_INTERFACE_VERSION()":"ad3cb1cc","addMember(uint256,address)":"74d0a676","circles(uint256)":"bc5e0f30","createCircle(bool,string)":"91857ae1","getCircle(uint256)":"64ccecde","getMembers(uint256,uint256,uint256)":"9a366c7b","getRoleAdmin(bytes32)":"248a9ca3","grantRole(bytes32,address)":"2f2ff15d","hasRole(bytes32,address)":"91d14854","initialize(address)":"c4d66de8","isCircleMember(uint256,address)":"f2f3820b","isMember(uint256,address)":"7d9e10f5","joinCircle(uint256)":"86d6cfb3","joinCirclePrivate(uint256,bytes)":"b15cbfa9","leaveCircle(uint256)":"d844fc52","nextCircleId()":"471cbff8","proxiableUUID()":"52d1902d","removeMember(uint256,address)":"6be7658b","renounceRole(bytes32,address)":"36568abe","revokeRole(bytes32,address)":"d547741f","supportsInterface(bytes4)":"01ffc9a7","upgradeToAndCall(address,bytes)":"4f1ef286"},"id":57}