{"abi":[{"type":"constructor","inputs":[],"stateMutability":"nonpayable"},{"type":"function","name":"DEFAULT_ADMIN_ROLE","inputs":[],"outputs":[{"name":"","type":"bytes32","internalType":"bytes32"}],"stateMutability":"view"},{"type":"function","name":"FEE_SETTER_ROLE","inputs":[],"outputs":[{"name":"","type":"bytes32","internalType":"bytes32"}],"stateMutability":"view"},{"type":"function","name":"MAX_RESOLVERS","inputs":[],"outputs":[{"name":"","type":"uint256","internalType":"uint256"}],"stateMutability":"view"},{"type":"function","name":"MIN_GOAL_DURATION","inputs":[],"outputs":[{"name":"","type":"uint64","internalType":"uint64"}],"stateMutability":"view"},{"type":"function","name":"PAUSER_ROLE","inputs":[],"outputs":[{"name":"","type":"bytes32","internalType":"bytes32"}],"stateMutability":"view"},{"type":"function","name":"UNRESOLVED","inputs":[],"outputs":[{"name":"","type":"uint8","internalType":"uint8"}],"stateMutability":"view"},{"type":"function","name":"UPGRADER_ROLE","inputs":[],"outputs":[{"name":"","type":"bytes32","internalType":"bytes32"}],"stateMutability":"view"},{"type":"function","name":"UPGRADE_INTERFACE_VERSION","inputs":[],"outputs":[{"name":"","type":"string","internalType":"string"}],"stateMutability":"view"},{"type":"function","name":"USDT","inputs":[],"outputs":[{"name":"","type":"address","internalType":"contract IERC20"}],"stateMutability":"view"},{"type":"function","name":"claim","inputs":[{"name":"goalId","type":"uint256","internalType":"uint256"}],"outputs":[],"stateMutability":"nonpayable"},{"type":"function","name":"createGoal","inputs":[{"name":"circleId","type":"uint256","internalType":"uint256"},{"name":"outcomeType","type":"uint8","internalType":"enum IPredictionPool.OutcomeType"},{"name":"deadline","type":"uint64","internalType":"uint64"},{"name":"minStake","type":"uint128","internalType":"uint128"},{"name":"resolverList","type":"address[]","internalType":"address[]"},{"name":"metadataURI","type":"string","internalType":"string"}],"outputs":[{"name":"goalId","type":"uint256","internalType":"uint256"}],"stateMutability":"nonpayable"},{"type":"function","name":"factory","inputs":[],"outputs":[{"name":"","type":"address","internalType":"contract ICircleFactory"}],"stateMutability":"view"},{"type":"function","name":"feeRecipient","inputs":[],"outputs":[{"name":"","type":"address","internalType":"address"}],"stateMutability":"view"},{"type":"function","name":"getResolverCount","inputs":[{"name":"goalId","type":"uint256","internalType":"uint256"}],"outputs":[{"name":"","type":"uint256","internalType":"uint256"}],"stateMutability":"view"},{"type":"function","name":"getRoleAdmin","inputs":[{"name":"role","type":"bytes32","internalType":"bytes32"}],"outputs":[{"name":"","type":"bytes32","internalType":"bytes32"}],"stateMutability":"view"},{"type":"function","name":"goals","inputs":[{"name":"","type":"uint256","internalType":"uint256"}],"outputs":[{"name":"circleId","type":"uint256","internalType":"uint256"},{"name":"creator","type":"address","internalType":"address"},{"name":"outcomeType","type":"uint8","internalType":"enum IPredictionPool.OutcomeType"},{"name":"status","type":"uint8","internalType":"enum IPredictionPool.GoalStatus"},{"name":"deadline","type":"uint64","internalType":"uint64"},{"name":"minStake","type":"uint128","internalType":"uint128"},{"name":"totalPool","type":"uint128","internalType":"uint128"},{"name":"winningSide","type":"uint8","internalType":"uint8"},{"name":"metadataURI","type":"string","internalType":"string"}],"stateMutability":"view"},{"type":"function","name":"grantRole","inputs":[{"name":"role","type":"bytes32","internalType":"bytes32"},{"name":"account","type":"address","internalType":"address"}],"outputs":[],"stateMutability":"nonpayable"},{"type":"function","name":"hasRole","inputs":[{"name":"role","type":"bytes32","internalType":"bytes32"},{"name":"account","type":"address","internalType":"address"}],"outputs":[{"name":"","type":"bool","internalType":"bool"}],"stateMutability":"view"},{"type":"function","name":"initialize","inputs":[{"name":"_usdt","type":"address","internalType":"address"},{"name":"_factory","type":"address","internalType":"address"},{"name":"_resolution","type":"address","internalType":"address"},{"name":"admin","type":"address","internalType":"address"}],"outputs":[],"stateMutability":"nonpayable"},{"type":"function","name":"isResolver","inputs":[{"name":"","type":"uint256","internalType":"uint256"},{"name":"","type":"address","internalType":"address"}],"outputs":[{"name":"","type":"bool","internalType":"bool"}],"stateMutability":"view"},{"type":"function","name":"lockGoal","inputs":[{"name":"goalId","type":"uint256","internalType":"uint256"}],"outputs":[],"stateMutability":"nonpayable"},{"type":"function","name":"markDisputed","inputs":[{"name":"goalId","type":"uint256","internalType":"uint256"}],"outputs":[],"stateMutability":"nonpayable"},{"type":"function","name":"nextGoalId","inputs":[],"outputs":[{"name":"","type":"uint256","internalType":"uint256"}],"stateMutability":"view"},{"type":"function","name":"pause","inputs":[],"outputs":[],"stateMutability":"nonpayable"},{"type":"function","name":"paused","inputs":[],"outputs":[{"name":"","type":"bool","internalType":"bool"}],"stateMutability":"view"},{"type":"function","name":"poolPerSide","inputs":[{"name":"","type":"uint256","internalType":"uint256"},{"name":"","type":"uint8","internalType":"uint8"}],"outputs":[{"name":"","type":"uint256","internalType":"uint256"}],"stateMutability":"view"},{"type":"function","name":"protocolFeeBps","inputs":[],"outputs":[{"name":"","type":"uint256","internalType":"uint256"}],"stateMutability":"view"},{"type":"function","name":"proxiableUUID","inputs":[],"outputs":[{"name":"","type":"bytes32","internalType":"bytes32"}],"stateMutability":"view"},{"type":"function","name":"refund","inputs":[{"name":"goalId","type":"uint256","internalType":"uint256"}],"outputs":[],"stateMutability":"nonpayable"},{"type":"function","name":"renounceRole","inputs":[{"name":"role","type":"bytes32","internalType":"bytes32"},{"name":"callerConfirmation","type":"address","internalType":"address"}],"outputs":[],"stateMutability":"nonpayable"},{"type":"function","name":"resolution","inputs":[],"outputs":[{"name":"","type":"address","internalType":"contract IResolutionModule"}],"stateMutability":"view"},{"type":"function","name":"revokeRole","inputs":[{"name":"role","type":"bytes32","internalType":"bytes32"},{"name":"account","type":"address","internalType":"address"}],"outputs":[],"stateMutability":"nonpayable"},{"type":"function","name":"setFee","inputs":[{"name":"bps","type":"uint256","internalType":"uint256"},{"name":"recipient","type":"address","internalType":"address"}],"outputs":[],"stateMutability":"nonpayable"},{"type":"function","name":"setResolutionModule","inputs":[{"name":"m","type":"address","internalType":"address"}],"outputs":[],"stateMutability":"nonpayable"},{"type":"function","name":"setWinner","inputs":[{"name":"goalId","type":"uint256","internalType":"uint256"},{"name":"winningSide","type":"uint8","internalType":"uint8"}],"outputs":[],"stateMutability":"nonpayable"},{"type":"function","name":"stake","inputs":[{"name":"goalId","type":"uint256","internalType":"uint256"},{"name":"side","type":"uint8","internalType":"uint8"},{"name":"amount","type":"uint256","internalType":"uint256"}],"outputs":[],"stateMutability":"nonpayable"},{"type":"function","name":"stakeOf","inputs":[{"name":"","type":"uint256","internalType":"uint256"},{"name":"","type":"address","internalType":"address"},{"name":"","type":"uint8","internalType":"uint8"}],"outputs":[{"name":"","type":"uint256","internalType":"uint256"}],"stateMutability":"view"},{"type":"function","name":"supportsInterface","inputs":[{"name":"interfaceId","type":"bytes4","internalType":"bytes4"}],"outputs":[{"name":"","type":"bool","internalType":"bool"}],"stateMutability":"view"},{"type":"function","name":"unpause","inputs":[],"outputs":[],"stateMutability":"nonpayable"},{"type":"function","name":"upgradeToAndCall","inputs":[{"name":"newImplementation","type":"address","internalType":"address"},{"name":"data","type":"bytes","internalType":"bytes"}],"outputs":[],"stateMutability":"payable"},{"type":"event","name":"Claimed","inputs":[{"name":"goalId","type":"uint256","indexed":true,"internalType":"uint256"},{"name":"user","type":"address","indexed":true,"internalType":"address"},{"name":"amount","type":"uint256","indexed":false,"internalType":"uint256"}],"anonymous":false},{"type":"event","name":"GoalCreated","inputs":[{"name":"id","type":"uint256","indexed":true,"internalType":"uint256"},{"name":"circleId","type":"uint256","indexed":true,"internalType":"uint256"},{"name":"creator","type":"address","indexed":true,"internalType":"address"},{"name":"outcomeType","type":"uint8","indexed":false,"internalType":"uint8"},{"name":"deadline","type":"uint64","indexed":false,"internalType":"uint64"},{"name":"minStake","type":"uint128","indexed":false,"internalType":"uint128"},{"name":"resolvers","type":"address[]","indexed":false,"internalType":"address[]"},{"name":"metadataURI","type":"string","indexed":false,"internalType":"string"}],"anonymous":false},{"type":"event","name":"GoalLocked","inputs":[{"name":"goalId","type":"uint256","indexed":true,"internalType":"uint256"}],"anonymous":false},{"type":"event","name":"GoalRefunded","inputs":[{"name":"goalId","type":"uint256","indexed":true,"internalType":"uint256"}],"anonymous":false},{"type":"event","name":"GoalResolved","inputs":[{"name":"goalId","type":"uint256","indexed":true,"internalType":"uint256"},{"name":"winningSide","type":"uint8","indexed":false,"internalType":"uint8"}],"anonymous":false},{"type":"event","name":"Initialized","inputs":[{"name":"version","type":"uint64","indexed":false,"internalType":"uint64"}],"anonymous":false},{"type":"event","name":"Paused","inputs":[{"name":"account","type":"address","indexed":false,"internalType":"address"}],"anonymous":false},{"type":"event","name":"RoleAdminChanged","inputs":[{"name":"role","type":"bytes32","indexed":true,"internalType":"bytes32"},{"name":"previousAdminRole","type":"bytes32","indexed":true,"internalType":"bytes32"},{"name":"newAdminRole","type":"bytes32","indexed":true,"internalType":"bytes32"}],"anonymous":false},{"type":"event","name":"RoleGranted","inputs":[{"name":"role","type":"bytes32","indexed":true,"internalType":"bytes32"},{"name":"account","type":"address","indexed":true,"internalType":"address"},{"name":"sender","type":"address","indexed":true,"internalType":"address"}],"anonymous":false},{"type":"event","name":"RoleRevoked","inputs":[{"name":"role","type":"bytes32","indexed":true,"internalType":"bytes32"},{"name":"account","type":"address","indexed":true,"internalType":"address"},{"name":"sender","type":"address","indexed":true,"internalType":"address"}],"anonymous":false},{"type":"event","name":"Staked","inputs":[{"name":"goalId","type":"uint256","indexed":true,"internalType":"uint256"},{"name":"user","type":"address","indexed":true,"internalType":"address"},{"name":"side","type":"uint8","indexed":false,"internalType":"uint8"},{"name":"amount","type":"uint256","indexed":false,"internalType":"uint256"}],"anonymous":false},{"type":"event","name":"Unpaused","inputs":[{"name":"account","type":"address","indexed":false,"internalType":"address"}],"anonymous":false},{"type":"event","name":"Upgraded","inputs":[{"name":"implementation","type":"address","indexed":true,"internalType":"address"}],"anonymous":false},{"type":"error","name":"AccessControlBadConfirmation","inputs":[]},{"type":"error","name":"AccessControlUnauthorizedAccount","inputs":[{"name":"account","type":"address","internalType":"address"},{"name":"neededRole","type":"bytes32","internalType":"bytes32"}]},{"type":"error","name":"AddressEmptyCode","inputs":[{"name":"target","type":"address","internalType":"address"}]},{"type":"error","name":"AddressInsufficientBalance","inputs":[{"name":"account","type":"address","internalType":"address"}]},{"type":"error","name":"AlreadyClaimed","inputs":[]},{"type":"error","name":"BelowMinStake","inputs":[]},{"type":"error","name":"CannotSwitchSides","inputs":[]},{"type":"error","name":"DeadlineNotPassed","inputs":[]},{"type":"error","name":"DeadlinePassed","inputs":[]},{"type":"error","name":"DeadlineTooSoon","inputs":[]},{"type":"error","name":"ERC1967InvalidImplementation","inputs":[{"name":"implementation","type":"address","internalType":"address"}]},{"type":"error","name":"ERC1967NonPayable","inputs":[]},{"type":"error","name":"EnforcedPause","inputs":[]},{"type":"error","name":"ExpectedPause","inputs":[]},{"type":"error","name":"FailedInnerCall","inputs":[]},{"type":"error","name":"FeeTooHigh","inputs":[]},{"type":"error","name":"GoalNotDisputed","inputs":[]},{"type":"error","name":"GoalNotLocked","inputs":[]},{"type":"error","name":"GoalNotOpen","inputs":[]},{"type":"error","name":"GoalNotPaidOut","inputs":[]},{"type":"error","name":"GoalNotResolving","inputs":[]},{"type":"error","name":"InvalidInitialization","inputs":[]},{"type":"error","name":"NoResolvers","inputs":[]},{"type":"error","name":"NotCircleMember","inputs":[]},{"type":"error","name":"NotInitializing","inputs":[]},{"type":"error","name":"NothingToClaim","inputs":[]},{"type":"error","name":"OnlyResolution","inputs":[]},{"type":"error","name":"ReentrancyGuardReentrantCall","inputs":[]},{"type":"error","name":"ResolverNotMember","inputs":[]},{"type":"error","name":"SafeERC20FailedOperation","inputs":[{"name":"token","type":"address","internalType":"address"}]},{"type":"error","name":"TooManyResolvers","inputs":[]},{"type":"error","name":"UUPSUnauthorizedCallContext","inputs":[]},{"type":"error","name":"UUPSUnsupportedProxiableUUID","inputs":[{"name":"slot","type":"bytes32","internalType":"bytes32"}]},{"type":"error","name":"ZeroAddress","inputs":[]}],"bytecode":{"object":"0x60a080604052346100cc57306080527ff0c57e16840df040f15088dc2f81fe391c3923bec73e23a9662efc9c229c6a009081549060ff8260401c166100bd57506001600160401b036002600160401b031982821601610078575b60405161266d90816100d182396080518181816114af015261156a0152f35b6001600160401b031990911681179091556040519081527fc7f505b2f371ae2175ee4913f4499e1f2633a7b5936321eed1cdaeb6115181d290602090a15f8080610059565b63f92ee8a960e01b8152600490fd5b5f80fdfe6080806040526004361015610012575f80fd5b5f905f3560e01c90816301ffc9a714611f8957508063175bdcbb14611f5f5780631e1e9d4214611f20578063248a9ca314611ee7578063278ecde114611d905780632b5421b914611ccf5780632f2ff15d14611c84578063314b683514611bfb57806335659fb814611bde578063358b3bd914611ac757806336568abe14611a7f578063379607f51461182e5780633f4ba83a146117b7578063469048401461178e5780634f1ef2861461151957806352d1902d1461149c578063569759ad146114815780635c975abb146114525780635f1aeebf1461143657806361449ca2146112a957806371e21495146112805780638456cb591461121957806391d14854146111c3578063a217fddf146111a7578063ad3cb1cc1461114b578063b4f2e8b814611078578063b8811aa414610fec578063c45a015514610fc3578063c4c3922414610f79578063c54e44eb14610f50578063c9828ebe14610f33578063d547741f14610ee5578063d72c564714610ec7578063db11b7d814610e69578063e1d9640e14610760578063e63ab1e914610725578063e9347683146106ea578063f72c0d8b146106af578063f8c8765e146104ab5763f99b7d75146101d6575f80fd5b346104a85760603660031901126104a8576004356101f2611fdc565b906044356101fe612469565b6102066121ba565b818452602084815260408086206008548154925163f2f3820b60e01b8152600481019390935233602484015290916001600160a01b039184908290604490829086165afa90811561049d578891610470575b501561045e5760018201549160ff8360a81c16600681101561044a57610438576001600160401b03809360b01c16421015610426576002016001600160801b0390818154168610610414578689526002855260408920335f52855260405f2060ff6102c28a612146565b165f52855260405f2054610402578689526002855260408920335f52855260ff60405f20981697885f52855260405f206102fd878254612100565b90558689526001855260408920885f52855260405f2061031e878254612100565b9055818616815460801c019182116103ee5780546001600160801b031660809290921b6001600160801b03191691909117905560075416604051906323b872dd60e01b848301523360248301523060448301528460648301526064825260a0820192828410908411176103da5761039792604052612493565b6040519384528301527f0a867db1cb5dc249fadc9a5e0ea86179b9d19744911fc31e36608c19eecff7b560403393a360015f805160206126188339815191525580f35b634e487b7160e01b5f52604160045260245ffd5b634e487b7160e01b89526011600452602489fd5b604051634265d1bd60e11b8152600490fd5b60405163389f7e1160e01b8152600490fd5b60405163387b2e5560e11b8152600490fd5b6040516350b684b960e01b8152600490fd5b634e487b7160e01b89526021600452602489fd5b604051635024711b60e01b8152600490fd5b6104909150843d8611610496575b6104888183612018565b81019061216a565b5f610258565b503d61047e565b6040513d8a823e3d90fd5b80fd5b50346104a85760803660031901126104a8576104c5612002565b6104cd611fec565b906044356001600160a01b03818116918290036106ab576064359080821682036106ab577ff0c57e16840df040f15088dc2f81fe391c3923bec73e23a9662efc9c229c6a0094855460ff8160401c1615956001600160401b038216801590816106a3575b6001149081610699575b159081610690575b5061067e5767ffffffffffffffff198216600117885583918761065f575b50169283158015610655575b610643576105d19061057d612504565b610585612504565b61058d612504565b610595612504565b5f805160206125f8833981519152805460ff191690556105b3612504565b6105bb612504565b60015f80516020612618833981519152556122c3565b506001600160601b0360a01b9283600754161760075516816008541617600855600954161760095582600b55610605575080f35b68ff00000000000000001981541690557fc7f505b2f371ae2175ee4913f4499e1f2633a7b5936321eed1cdaeb6115181d2602060405160018152a180f35b60405163d92e233d60e01b8152600490fd5b508282161561056d565b68ffffffffffffffffff1916680100000000000000011788555f610561565b60405163f92ee8a960e01b8152600490fd5b9050155f610543565b303b15915061053b565b889150610531565b5f80fd5b50346104a857806003193601126104a85760206040517f189ab7a9244df0848122154315af71fe140f3db0fe014031783b0946b8c9d2e38152f35b50346104a857806003193601126104a85760206040517fe6ad9a47fbda1dc18de1eb5eeb7d935e5e81b4748f3cfc61e233e64f881820608152f35b50346104a857806003193601126104a85760206040517f65d7a28e3265b37a6474929f336521b332c1681b933f6cb9f3376673440d862a8152f35b50346104a85760c03660031901126104a857600360243510156104a8576044356001600160401b0381168103610e6557606435916001600160801b03831683036104a857608435906001600160401b0382116104a857366023830112156104a8576001600160401b038260040135116104a857366024836004013560051b840101116104a85760a435906001600160401b0382116104a857366023830112156104a8576001600160401b038260040135116104a8573660248360040135840101116104a85761082d612469565b60085460405163f2f3820b60e01b815260048035908201523360248201526001600160a01b0390911690602081604481855afa908115610e5a578391610e3b575b501561045e57610e104201804211610e27576001600160401b0386161115610e1557836004013515610e03576020846004013511610df157815b84600401358110610d49575050600a54935f198514610d355760018501600a55604051806101208101106001600160401b03610120830111176103da576101208101604052600435815233602082015260243560408201528260608201526001600160401b03821660808201526001600160801b03871660a08201528260c082015260ff60e082015261094336856004013560248701612054565b6101008201528583528260205260408320908051825560018060a01b0360208201511660018301549060408301516003811015610d21576060840151916006831015610d0d5760808086015160a89490941b60ff60a81b1660a093841b60ff60a01b166001600160f01b0319909616909217949094171760b09290921b67ffffffffffffffff60b01b1691909117600185015582015160c083015190911b6001600160801b0319166001600160801b0391909116176002830155610100906003830160ff60e08301511660ff1982541617905501518051906001600160401b038211610cf957610a36600484015461208a565b601f8111610cb5575b50602090601f8311600114610c495760049291869183610c3e575b50508160011b915f199060031b1c1916179101555b815b84600401358110610b6657506001600160801b03604051966001600160401b0360a089019360ff602435168a5216602089015216604087015260a060608701528360040135905260c0850192602481019082905b80600401358210610b3c575050508483036080860152600482013580845260209585927f2007eedb416da5c7e5d887f111eaeaf17d005f8ca55f4410587388e7c9e7dd0e9260248601878a0137878560040135870101528681339660043596601f80199160040135011601030190a4604051908152f35b90919485359060018060a01b0382168092036106ab57602081600193829352019601920190610ac5565b858352600360205260408320610b8c610b8783886004013560248a01612182565b6121a6565b9080549068010000000000000000821015610c2a5760018201808255821015610c16578552602080862090910180546001600160a01b0319166001600160a01b0393841617905587855260049081905260408520600193929091610bfc90610b879085908b013560248c01612182565b165f5260205260405f208260ff1982541617905501610a71565b634e487b7160e01b86526032600452602486fd5b634e487b7160e01b86526041600452602486fd5b015190505f80610a5a565b906004840186526020862091865b601f1985168110610c9d5750918391600193600495601f19811610610c85575b505050811b01910155610a6f565b01515f1960f88460031b161c191690555f8080610c77565b91926020600181928685015181550194019201610c57565b60048401865260208620601f840160051c810160208510610cf2575b601f830160051c82018110610ce7575050610a3f565b878155600101610cd1565b5080610cd1565b634e487b7160e01b85526041600452602485fd5b634e487b7160e01b88526021600452602488fd5b634e487b7160e01b87526021600452602487fd5b634e487b7160e01b82526011600452602482fd5b610d946020610d63610b8784896004013560248b01612182565b60405163f2f3820b60e01b815260048035908201526001600160a01b03909116602482015291829081906044820190565b0381865afa908115610de6578491610dc7575b5015610db5576001016108a8565b60405163463e702160e11b8152600490fd5b610de0915060203d602011610496576104888183612018565b5f610da7565b6040513d86823e3d90fd5b6040516342332f9560e11b8152600490fd5b6040516323b4fa8360e21b8152600490fd5b6040516325a8637d60e21b8152600490fd5b634e487b7160e01b5f52601160045260245ffd5b610e54915060203d602011610496576104888183612018565b5f61086e565b6040513d85823e3d90fd5b5080fd5b50346104a85760603660031901126104a857610e83611fec565b6044359160ff83168093036106ab5760409060043581526002602052209060018060a01b03165f5260205260405f20905f52602052602060405f2054604051908152f35b50346104a857806003193601126104a8576020600a54604051908152f35b50346104a85760403660031901126104a857610f2f600435610f05611fec565b908084525f805160206125d8833981519152602052610f2a6001604086200154612295565b6123ea565b5080f35b50346104a857806003193601126104a8576020604051610e108152f35b50346104a857806003193601126104a8576007546040516001600160a01b039091168152602090f35b50346104a85760403660031901126104a8576040610f95611fec565b9160043581526004602052209060018060a01b03165f52602052602060ff60405f2054166040519015158152f35b50346104a857806003193601126104a8576008546040516001600160a01b039091168152602090f35b50346104a85760203660031901126104a857611006612002565b335f9081527fb7db2dd08fcb62d0c9e08c51941cae53c267786a0b75803fb7960902fc8ef97d602052604090205460ff161561105a5760018060a01b03166001600160601b0360a01b600954161760095580f35b60405163e2517d3f60e01b81523360048201525f6024820152604490fd5b50346104a85760403660031901126104a857600435611095611fec565b335f9081527fc9aee5cd73da4b3ccfd5c5e39705759ba6abdf8c9ff41edb9dd4f2a5831eb0b760205260409020549091907fe6ad9a47fbda1dc18de1eb5eeb7d935e5e81b4748f3cfc61e233e64f881820609060ff161561112d57506103e8811161111b57600b5560018060a01b03166001600160601b0360a01b600c541617600c5580f35b60405163cd4e616760e01b8152600490fd5b6044906040519063e2517d3f60e01b82523360048301526024820152fd5b50346104a857806003193601126104a85760405160408101908082106001600160401b038311176103da576111a39160405260058152640352e302e360dc1b60208201526040519182916020835260208301906120c2565b0390f35b50346104a857806003193601126104a857602090604051908152f35b50346104a85760403660031901126104a85760406111df611fec565b9160043581525f805160206125d8833981519152602052209060018060a01b03165f52602052602060ff60405f2054166040519015158152f35b50346104a857806003193601126104a85761123261223a565b61123a612469565b5f805160206125f8833981519152600160ff198254161790557f62e78cea01bee320cd4e420270b5ea74000d11b0c9f74754ebdbfc544b05a2586020604051338152a180f35b50346104a857806003193601126104a8576009546040516001600160a01b039091168152602090f35b50346104a857602090816003193601126104a857600435815280825260408120805490600192600182015460ff8160a01c169160ff8260a81c169060028501549388600460ff6003890154169701604051998a91859181549161130b8361208a565b808652926001811690811561141357506001146113d4575b50505061133292500389612018565b60405198610120978a5260018060a01b038516908a015260038110156113c057604089015260068210156113ac5750916001600160401b03879694926111a39694606089015260b01c1660808701526001600160801b03811660a087015260801c60c086015260e0850152806101008501528301906120c2565b634e487b7160e01b81526021600452602490fd5b634e487b7160e01b82526021600452602482fd5b87528487209492508691905b8183106113f957508d9450508201016113325f80611323565b8554948301840194909452938301938c93918301916113e0565b9250505061133294925060ff191682840152151560051b8201018b925f80611323565b50346104a857806003193601126104a857602060405160ff8152f35b50346104a857806003193601126104a857602060ff5f805160206125f883398151915254166040519015158152f35b50346104a857806003193601126104a8576020604051818152f35b50346104a857806003193601126104a8577f00000000000000000000000000000000000000000000000000000000000000006001600160a01b031630036115075760206040517f360894a13ba1a3210667c828492db98dca3e2076cc3735a920a3ca505d382bbc8152f35b60405163703e46dd60e11b8152600490fd5b5060403660031901126104a85761152e612002565b60249182356001600160401b038111610e655736602382011215610e655761155f9036908581600401359101612054565b6001600160a01b03927f00000000000000000000000000000000000000000000000000000000000000008416308114908115611760575b5061150757335f9081527fab71e3f32666744d246edff3f96e4bdafee2e9867098cdd118a979a7464786a860209081526040909120549094907f189ab7a9244df0848122154315af71fe140f3db0fe014031783b0946b8c9d2e39060ff161561174357508116936040516352d1902d60e01b81528181600481895afa859181611710575b5061163757604051634c9c8ce360e01b8152600481018790528790fd5b8590877f360894a13ba1a3210667c828492db98dca3e2076cc3735a920a3ca505d382bbc918281036116fb5750843b156116e5575080546001600160a01b031916821790556040518592917fbc7cd75a20ee27fd9adebab32041f755214dbc6bffa90cc0225b39da2e5c2d3b8480a28451156116c857508351610f2f94839201845af46116c2612545565b91612574565b9350505050346116d6575080f35b63b398979f60e01b8152600490fd5b604051634c9c8ce360e01b815260048101849052fd5b60405190632a87526960e21b82526004820152fd5b9091508281813d831161173c575b6117288183612018565b810103126117385751905f61161a565b8580fd5b503d61171e565b866044916040519163e2517d3f60e01b8352336004840152820152fd5b9050847f360894a13ba1a3210667c828492db98dca3e2076cc3735a920a3ca505d382bbc541614155f611596565b50346104a857806003193601126104a857600c546040516001600160a01b039091168152602090f35b50346104a857806003193601126104a8576117d061223a565b5f805160206125f8833981519152805460ff81161561181c5760ff191690557f5db9ee0a495bf2e6ff9c91a7834c1ba4fdd244a5e8aa4e537bd38aeae4b073aa6020604051338152a180f35b604051638dfc202b60e01b8152600490fd5b50346104a857602080600319360112610e655760043561184c6121ba565b8083528282526040832060ff600182015460a81c166006811015611a6b57600503611a59578184526005835260408420335f52835260ff60405f205416611a4757600360ff910154168184526001835260408420815f52835260405f205480155f146119e857506118bc90612146565b8184526002835260408420335f52835260ff60405f2091165f52825260405f205480156119d657915b600b5480611962575b507f4ec90e965519d92681267467f775ada5bd214aa92c0dc93d90a5e880ce9ed026908285526005815260408520335f52815260405f20600160ff19825416179055611945843360018060a01b03600754166121e9565b6040519384523393a360015f805160206126188339815191525580f35b61196f6127109185612157565b04928381039081116119c257600754600c5491947f4ec90e965519d92681267467f775ada5bd214aa92c0dc93d90a5e880ce9ed02693926119bc926001600160a01b0391821691166121e9565b906118ee565b634e487b7160e01b85526011600452602485fd5b6040516312d37ee560e31b8152600490fd5b8285526002845260408520335f52845260405f20825f52845260405f20549081156119d657611a41928487526001865260ff611a276040892092612146565b165f528552611a3a60405f205483612157565b0490612100565b916118e5565b604051630c8d9eab60e31b8152600490fd5b60405163da5028b960e01b8152600490fd5b634e487b7160e01b85526021600452602485fd5b50346104a85760403660031901126104a857611a99611fec565b336001600160a01b03821603611ab557610f2f906004356123ea565b60405163334bd91960e11b8152600490fd5b50346106ab5760203660031901126106ab57600435805f525f602052600160405f20019081549060ff8260a81c166006811015611bca57610438576001600160401b03808360b01c164210611bb85760ff60a81b19928316600160a81b17845560405191807ffe1ef7f2c472f2824a06cd9d817165863c10a0dd9802798f2cfee22f13938eaf5f80a26009546001600160a01b0316803b156106ab576024845f81938195630fc8814960e21b845260048401525af18015611bad57611b97575b5050815416600160a91b17905580f35b9080929450116103da576040525f915f80611b87565b6040513d5f823e3d90fd5b6040516302eb354360e41b8152600490fd5b634e487b7160e01b5f52602160045260245ffd5b346106ab575f3660031901126106ab576020600b54604051908152f35b346106ab5760203660031901126106ab576009546001600160a01b03163303611c72576004355f525f602052600160405f2001805460ff8160a81c166006811015611bca57806002611c569214908115611c67575b5061210d565b60ff60a81b1916600160aa1b179055005b600191501484611c50565b604051633904979160e21b8152600490fd5b346106ab5760403660031901126106ab57611ccd600435611ca3611fec565b90805f525f805160206125d8833981519152602052611cc8600160405f200154612295565b612360565b005b346106ab5760403660031901126106ab57600435611ceb611fdc565b6009546001600160a01b03163303611c7257815f525f60205260405f2091600183019283549260ff8460a81c16906006821015611bca5760ff60037ffcff7481c48629888b016948a3ca82191fa9745f57a85ba591fb6f844e5795a694611d5f85600260209714908115611d85575061210d565b019116908160ff19825416179055604051908152a260ff60a81b1916600560a81b179055005b60019150148b611c50565b346106ab576020806003193601126106ab57600435611dad6121ba565b805f525f825260ff600160405f20015460a81c166006811015611bca57600403611ed557805f526005825260405f20335f52825260ff60405f205416611a4757805f526002825260405f20335f52825260405f205f80528252611e3360405f2054825f526002845260405f20335f52845260405f2060015f52845260405f205490612100565b9081156119d657611e8f92815f526005815260405f20335f528152600660405f209160ff1992600184825416179055835f525260405f209081549060ff821615611ea2575b6007548690869033906001600160a01b03166121e9565b60015f8051602061261883398151915255005b1660011790557f30603b8160de6419b0b3f6408b2b9cb576eb560cdb9900a5a0da42467f6e40945f80a282808080611e78565b6040516353dcb71360e11b8152600490fd5b346106ab5760203660031901126106ab576004355f525f805160206125d88339815191526020526020600160405f200154604051908152f35b346106ab5760403660031901126106ab57611f39611fdc565b6004355f52600160205260ff60405f2091165f52602052602060405f2054604051908152f35b346106ab5760203660031901126106ab576004355f526003602052602060405f2054604051908152f35b346106ab5760203660031901126106ab576004359063ffffffff60e01b82168092036106ab57602091637965db0b60e01b8114908115611fcb575b5015158152f35b6301ffc9a760e01b14905083611fc4565b6024359060ff821682036106ab57565b602435906001600160a01b03821682036106ab57565b600435906001600160a01b03821682036106ab57565b90601f801991011681019081106001600160401b038211176103da57604052565b6001600160401b0381116103da57601f01601f191660200190565b92919261206082612039565b9161206e6040519384612018565b8294818452818301116106ab578281602093845f960137010152565b90600182811c921680156120b8575b60208310146120a457565b634e487b7160e01b5f52602260045260245ffd5b91607f1691612099565b91908251928382525f5b8481106120ec575050825f602080949584010152601f8019910116010190565b6020818301810151848301820152016120cc565b91908201809211610e2757565b1561211457565b60405162461bcd60e51b815260206004820152600a6024820152696261642073746174757360b01b6044820152606490fd5b60ff166001039060ff8211610e2757565b81810292918115918404141715610e2757565b908160209103126106ab575180151581036106ab5790565b91908110156121925760051b0190565b634e487b7160e01b5f52603260045260245ffd5b356001600160a01b03811681036106ab5790565b5f8051602061261883398151915260028154146121d75760029055565b604051633ee5aeb560e01b8152600490fd5b60405163a9059cbb60e01b60208201526001600160a01b03909216602483015260448083019390935291815260808101916001600160401b038311828410176103da5761223892604052612493565b565b335f9081527f75442b0a96088b5456bc4ed01394c96a4feec0f883c9494257d76b96ab1c9b6b60205260409020547f65d7a28e3265b37a6474929f336521b332c1681b933f6cb9f3376673440d862a9060ff161561112d5750565b805f525f805160206125d883398151915260205260405f20335f5260205260ff60405f2054161561112d5750565b6001600160a01b03165f8181527fb7db2dd08fcb62d0c9e08c51941cae53c267786a0b75803fb7960902fc8ef97d60205260409020545f805160206125d88339815191529060ff1661235a575f805260205260405f20815f5260205260405f20600160ff1982541617905533905f7f2f8788117e7eff1d82e926ec794901d17c78024a50270940304540a733656f0d8180a4600190565b50505f90565b90815f525f805160206125d88339815191528060205260405f209160018060a01b031691825f5260205260ff60405f205416155f146123e357825f5260205260405f20815f5260205260405f20600160ff1982541617905533917f2f8788117e7eff1d82e926ec794901d17c78024a50270940304540a733656f0d5f80a4600190565b5050505f90565b90815f525f805160206125d88339815191528060205260405f209160018060a01b031691825f5260205260ff60405f2054165f146123e357825f5260205260405f20815f5260205260405f2060ff19815416905533917ff6391f5c32d9c69d2a47ea670b442974b53935d1edc7fd64eb21e047a839171b5f80a4600190565b60ff5f805160206125f8833981519152541661248157565b60405163d93c066560e01b8152600490fd5b5f806124bb9260018060a01b03169360208151910182865af16124b4612545565b9083612574565b80519081151591826124e9575b50506124d15750565b60249060405190635274afe760e01b82526004820152fd5b6124fc925060208091830101910161216a565b155f806124c8565b60ff7ff0c57e16840df040f15088dc2f81fe391c3923bec73e23a9662efc9c229c6a005460401c161561253357565b604051631afcd79f60e31b8152600490fd5b3d1561256f573d9061255682612039565b916125646040519384612018565b82523d5f602084013e565b606090565b9061259b575080511561258957805190602001fd5b604051630a12f52160e11b8152600490fd5b815115806125ce575b6125ac575090565b604051639996b31560e01b81526001600160a01b039091166004820152602490fd5b50803b156125a456fe02dd7bc7dec4dceedda775e58dd541e08a116c6c53815c0bd028192f7b626800cd5ed15c6e187e77e9aee88184c21f4f2182ab5827cb3b7e07fbedcd63f033009b779b17422d0df92223018b32b4d1fa46e071723d6817e2486d003becc55f00a2646970667358221220f143a5d342cccb20a1a14779441d9ff7896ee4dd3d75f71a9a2a20f703ed6fce64736f6c63430008180033","linkReferences":{}},"methodIdentifiers":{"DEFAULT_ADMIN_ROLE()":"a217fddf","FEE_SETTER_ROLE()":"e9347683","MAX_RESOLVERS()":"569759ad","MIN_GOAL_DURATION()":"c9828ebe","PAUSER_ROLE()":"e63ab1e9","UNRESOLVED()":"5f1aeebf","UPGRADER_ROLE()":"f72c0d8b","UPGRADE_INTERFACE_VERSION()":"ad3cb1cc","USDT()":"c54e44eb","claim(uint256)":"379607f5","createGoal(uint256,uint8,uint64,uint128,address[],string)":"e1d9640e","factory()":"c45a0155","feeRecipient()":"46904840","getResolverCount(uint256)":"175bdcbb","getRoleAdmin(bytes32)":"248a9ca3","goals(uint256)":"61449ca2","grantRole(bytes32,address)":"2f2ff15d","hasRole(bytes32,address)":"91d14854","initialize(address,address,address,address)":"f8c8765e","isResolver(uint256,address)":"c4c39224","lockGoal(uint256)":"358b3bd9","markDisputed(uint256)":"314b6835","nextGoalId()":"d72c5647","pause()":"8456cb59","paused()":"5c975abb","poolPerSide(uint256,uint8)":"1e1e9d42","protocolFeeBps()":"35659fb8","proxiableUUID()":"52d1902d","refund(uint256)":"278ecde1","renounceRole(bytes32,address)":"36568abe","resolution()":"71e21495","revokeRole(bytes32,address)":"d547741f","setFee(uint256,address)":"b4f2e8b8","setResolutionModule(address)":"b8811aa4","setWinner(uint256,uint8)":"2b5421b9","stake(uint256,uint8,uint256)":"f99b7d75","stakeOf(uint256,address,uint8)":"db11b7d8","supportsInterface(bytes4)":"01ffc9a7","unpause()":"3f4ba83a","upgradeToAndCall(address,bytes)":"4f1ef286"},"id":58}